{
  "contractName": "Bank",
  "abi": [
    {
      "inputs": [
        {
          "internalType": "address",
          "name": "tokenAddress",
          "type": "address"
        }
      ],
      "stateMutability": "nonpayable",
      "type": "constructor"
    },
    {
      "anonymous": false,
      "inputs": [
        {
          "indexed": false,
          "internalType": "uint256",
          "name": "amount",
          "type": "uint256"
        }
      ],
      "name": "Bought",
      "type": "event"
    },
    {
      "anonymous": false,
      "inputs": [
        {
          "indexed": false,
          "internalType": "uint256",
          "name": "amount",
          "type": "uint256"
        }
      ],
      "name": "Sold",
      "type": "event"
    },
    {
      "inputs": [],
      "name": "token",
      "outputs": [
        {
          "internalType": "contract IERC20",
          "name": "",
          "type": "address"
        }
      ],
      "stateMutability": "view",
      "type": "function",
      "constant": true
    },
    {
      "inputs": [],
      "name": "buy",
      "outputs": [],
      "stateMutability": "payable",
      "type": "function",
      "payable": true
    },
    {
      "inputs": [
        {
          "internalType": "uint256",
          "name": "amount",
          "type": "uint256"
        }
      ],
      "name": "sell",
      "outputs": [],
      "stateMutability": "nonpayable",
      "type": "function"
    }
  ],
  "bytecode": "0x608060405234801561001057600080fd5b50604051610b28380380610b288339818101604052810190610032919061008d565b806000806101000a81548173ffffffffffffffffffffffffffffffffffffffff021916908373ffffffffffffffffffffffffffffffffffffffff160217905550506100ff565b600081519050610087816100e8565b92915050565b60006020828403121561009f57600080fd5b60006100ad84828501610078565b91505092915050565b60006100c1826100c8565b9050919050565b600073ffffffffffffffffffffffffffffffffffffffff82169050919050565b6100f1816100b6565b81146100fc57600080fd5b50565b610a1a8061010e6000396000f3fe608060405260043610610051576000357c010000000000000000000000000000000000000000000000000000000090048063a6f2ae3a14610056578063e4849b3214610060578063fc0c546a14610089575b600080fd5b61005e6100b4565b005b34801561006c57600080fd5b506100876004803603810190610082919061063a565b61030e565b005b34801561009557600080fd5b5061009e6105ae565b6040516100ab9190610883565b60405180910390f35b600034905060008060009054906101000a900473ffffffffffffffffffffffffffffffffffffffff1673ffffffffffffffffffffffffffffffffffffffff166370a08231306040518263ffffffff167c010000000000000000000000000000000000000000000000000000000002815260040161013191906107df565b60206040518083038186803b15801561014957600080fd5b505afa15801561015d573d6000803e3d6000fd5b505050506040513d601f19601f820116820180604052508101906101819190610663565b9050600082116101c6576040517f08c379a00000000000000000000000000000000000000000000000000000000081526004016101bd906108fe565b60405180910390fd5b80821115610209576040517f08c379a0000000000000000000000000000000000000000000000000000000008152600401610200906108de565b60405180910390fd5b60008054906101000a900473ffffffffffffffffffffffffffffffffffffffff1673ffffffffffffffffffffffffffffffffffffffff1663a9059cbb33846040518363ffffffff167c010000000000000000000000000000000000000000000000000000000002815260040161028092919061085a565b602060405180830381600087803b15801561029a57600080fd5b505af11580156102ae573d6000803e3d6000fd5b505050506040513d601f19601f820116820180604052508101906102d29190610611565b507f4e08ba899977cf7d4c2964bce71c6b9a7ef76ee5166a4c1249a1e08016e33ef182604051610302919061091e565b60405180910390a15050565b60008111610351576040517f08c379a00000000000000000000000000000000000000000000000000000000081526004016103489061089e565b60405180910390fd5b60008060009054906101000a900473ffffffffffffffffffffffffffffffffffffffff1673ffffffffffffffffffffffffffffffffffffffff1663dd62ed3e33306040518363ffffffff167c01000000000000000000000000000000000000000000000000000000000281526004016103cb9291906107fa565b60206040518083038186803b1580156103e357600080fd5b505afa1580156103f7573d6000803e3d6000fd5b505050506040513d601f19601f8201168201806040525081019061041b9190610663565b905081811015610460576040517f08c379a0000000000000000000000000000000000000000000000000000000008152600401610457906108be565b60405180910390fd5b60008054906101000a900473ffffffffffffffffffffffffffffffffffffffff1673ffffffffffffffffffffffffffffffffffffffff166323b872dd3330856040518463ffffffff167c01000000000000000000000000000000000000000000000000000000000281526004016104d993929190610823565b602060405180830381600087803b1580156104f357600080fd5b505af1158015610507573d6000803e3d6000fd5b505050506040513d601f19601f8201168201806040525081019061052b9190610611565b503373ffffffffffffffffffffffffffffffffffffffff166108fc839081150290604051600060405180830381858888f19350505050158015610572573d6000803e3d6000fd5b507f92f64ca637d023f354075a4be751b169c1a8a9ccb6d33cdd0cb3520543995727826040516105a2919061091e565b60405180910390a15050565b60008054906101000a900473ffffffffffffffffffffffffffffffffffffffff1681565b6000815190506105e1816109b6565b92915050565b6000813590506105f6816109cd565b92915050565b60008151905061060b816109cd565b92915050565b60006020828403121561062357600080fd5b6000610631848285016105d2565b91505092915050565b60006020828403121561064c57600080fd5b600061065a848285016105e7565b91505092915050565b60006020828403121561067557600080fd5b6000610683848285016105fc565b91505092915050565b6106958161094a565b82525050565b6106a481610992565b82525050565b60006106b7602583610939565b91507f596f75206e65656420746f2073656c6c206174206c6561737420736f6d65207460008301527f6f6b656e730000000000000000000000000000000000000000000000000000006020830152604082019050919050565b600061071d601983610939565b91507f436865636b2074686520746f6b656e20616c6c6f77616e6365000000000000006000830152602082019050919050565b600061075d602083610939565b91507f4e6f7420656e6f75676820746f6b656e7320696e2074686520726573657276656000830152602082019050919050565b600061079d601b83610939565b91507f596f75206e65656420746f2073656e6420736f6d6520657468657200000000006000830152602082019050919050565b6107d981610988565b82525050565b60006020820190506107f4600083018461068c565b92915050565b600060408201905061080f600083018561068c565b61081c602083018461068c565b9392505050565b6000606082019050610838600083018661068c565b610845602083018561068c565b61085260408301846107d0565b949350505050565b600060408201905061086f600083018561068c565b61087c60208301846107d0565b9392505050565b6000602082019050610898600083018461069b565b92915050565b600060208201905081810360008301526108b7816106aa565b9050919050565b600060208201905081810360008301526108d781610710565b9050919050565b600060208201905081810360008301526108f781610750565b9050919050565b6000602082019050818103600083015261091781610790565b9050919050565b600060208201905061093360008301846107d0565b92915050565b600082825260208201905092915050565b600061095582610968565b9050919050565b60008115159050919050565b600073ffffffffffffffffffffffffffffffffffffffff82169050919050565b6000819050919050565b600061099d826109a4565b9050919050565b60006109af82610968565b9050919050565b6109bf8161095c565b81146109ca57600080fd5b50565b6109d681610988565b81146109e157600080fd5b5056fea2646970667358221220fcf924296461592b3d9e7414b409e723d5bb52add275c710666e03e7dd6bb5f964736f6c63430008000033",
  "immutableReferences": {},
  "source": "pragma solidity ^0.8.0;\r\n\r\n// import \"./MineToken.sol\";\r\n\r\nimport \"@openzeppelin/contracts/token/ERC20/IERC20.sol\";\r\n\r\ncontract Bank {\r\n    IERC20 public token;\r\n\r\n    event Bought(uint256 amount);\r\n    event Sold(uint256 amount);\r\n\r\n    constructor(address tokenAddress) {\r\n        token = IERC20(tokenAddress);\r\n    }\r\n\r\n    function buy() public payable {\r\n        uint256 amountTobuy = msg.value;\r\n        uint256 dexBalance = token.balanceOf(address(this));\r\n        require(amountTobuy > 0, \"You need to send some ether\");\r\n        require(amountTobuy <= dexBalance, \"Not enough tokens in the reserve\");\r\n        token.transfer(msg.sender, amountTobuy);\r\n        emit Bought(amountTobuy);\r\n    }\r\n\r\n    function sell(uint256 amount) public {\r\n        require(amount > 0, \"You need to sell at least some tokens\");\r\n        uint256 allowance = token.allowance(msg.sender, address(this));\r\n        require(allowance >= amount, \"Check the token allowance\");\r\n        token.transferFrom(msg.sender, address(this), amount);\r\n        payable(msg.sender).transfer(amount);\r\n\r\n        emit Sold(amount);\r\n    }\r\n}\r\n",
  "sourcePath": "C:\\Users\\minhh\\Desktop\\tokenerc20\\contracts\\Bank.sol",
  "compiler": {
    "name": "solc",
    "version": "0.8.0+commit.c7dfd78e.Emscripten.clang"
  },
  "schemaVersion": "3.4.3",
  "updatedAt": "2021-10-11T14:51:57.126Z",
  "networkType": "ethereum",
  "devdoc": {
    "kind": "dev",
    "methods": {},
    "version": 1
  },
  "userdoc": {
    "kind": "user",
    "methods": {},
    "version": 1
  }
}